:020000040000fa
:080000000220040000000000d2
:020000040000fa
:1040000005000000ef9e2200ee2c24000e01880027
:10401000000000000c00070000b027000100200095
:1040200011000700000020000000e0000200320044
:104030000000020000000000a47502000000000063
:104040000040da000000fe004440a90020082000e3
:104050000000e0000300320000002000a001880002
:104060004440a8000000060091018800800078000c
:104070000000eb0015003700e280400032a0b400e1
:104080009101ba00e280400032a0b4009102ba006f
:10409000e280400032a0b4000002eb00472bde00bb
:1040a000f507b200602ce10004003a000059eb0073
:1040b0008301e900fdff3e00040037006128e100b4
:1040c000010032000082eb00040007001101ba0079
:1040d0000200e000e8ff3a00000006003159ba0093
:1040e0008301e9000c0032002159ba008301e90084
:1040f000080032000400e00003003a00e2804000c3
:1041000032a0b400f5ff370011d9ba008301e900ed
:10411000faff3a008100e800e180400032a0b400dc
:10412000000006000455040000000000d47c0400d8
:10413000000000005a4c040000000000444a040043
:10414000000000003046040000000000c2390400f6
:10415000000000000e33040000000000e035040001
:1041600000000000d43404000000000028340400e3
:1041700000000000c035040000000000ae31040063
:104180000000000084320400000000003c360400ff
:1041900000000000f6350400000000008236040034
:1041a000000000005c37040000000000c836040076
:1041b00000000000d436040000000000483904006c
:1041c000000000006a390400000000006a360400a4
:1041d000000000008e39040000000000d03104000f
:1041e00000000000b439040000000000e0380400c2
:1041f000000000006a31040000000000903104005b
:1042000000000000000024000602ab00feff3a00a0
:104210000642ab00fcff3a000662ab00faff3a0030
:104220000622ab00f8ff3a000682ab00f6ff3a0028
:104230004110800080806000f3ff3a00000006001b
:10424000000024001602ab00feff3a001642ab004d
:10425000fcff3a001662ab00faff3a001622ab00f0
:10426000f8ff3a001682ab00f6ff3a00c11080005a
:1042700080806000f3ff3a00000006000662a8009c
:104280000662ab00feff3a0008c2a90000108000e1
:10429000000006001662a8001662ab00feff3a009e
:1042a00018c2a90080108000000006000080fb00fa
:1042b00010108800411080000108b20000c0eb001f
:1042c0000a003a0000002400411080008080600055
:1042d000fdff3a00cbff07004110800000002800de
:1042e0000080600001003200e0cfb3000000060053
:1042f0000080fb0090108800c11080000108b2000f
:1043000000c0eb000a003a0000002400c110800049
:1043100080806000fdff3a00c9ff0700c1108000e7
:10432000000028000080600001003200e0cfb300f0
:1043300000000600889fbe008a9fbe00000478002f
:104340000105780082057800130037000662a80096
:104350008004eb00030037008b8f54001000310005
:104360008904e8000c010700e04f5000faff32001a
:1043700000108000005d78000804e90002003a00a7
:1043800006a2a8000100370006a2a9000682a80024
:104390000682ab00feff3a00e00f5400ebff3a004c
:1043a000080078004f05be004f04be000000060064
:1043b000889fbe008a9fbe00000478000105780037
:1043c00082057800130037001662a8008004eb0015
:1043d000030037008b8f5400100031008904e8007f
:1043e000f0000700e04f5000faff3200801080001c
:1043f000005d78000804e90002003a0016a2a80057
:104400000100370016a2a9001682a8001682ab0090
:10441000feff3a00e00f5400ebff3a00080078007e
:104420004f05be004f04be000000060006a2a80013
:104430000682a8000000060016a2a8001682a800a6
:1044400000000600211088003010880000000600df
:10445000a1108800b0108800000006000602a80025
:10446000000006001602a800000006000642a80090
:10447000000006001642a800000006008680a90081
:10448000670160007305800081ff2f00818061005b
:104490008280700071058800680160004311de00b1
:1044a000610161004411dd00b10480000140a10000
:1044b00082807000b104880070006000c400de00db
:1044c000e180600001804000110480000110a10023
:1044d0008080700011048800000006008aa0a900f6
:1044e000670160004411dd00f3058000f1f82f0042
:1044f0008180610082807000f105880068016000a1
:104500004311de00610161004511dd00d10480002e
:104510000150a10082807000d1048800700060000a
:104520004400de00610060004300dd0011048000f3
:104530000130a10080807000110488000000060096
:104540008ac0a900670160004811dd00f305800002
:10455000f18f2f008180610082807000f10588005a
:10456000680160004311de00610161004611dd0059
:10457000d10480000160a10082807000d104880015
:1045800070006000110480000140a1008080700074
:1045900011048800000006008b20a9008be0a90010
:1045a000670160004411dd0003068000f1f82f0070
:1045b000818061008280700001068800000178001f
:1045c0000207b2004811dd0013068000f1ff280049
:1045d000818061008280700011068800680160009f
:1045e0004311de00610161004911dd00d10480004a
:1045f0000190a10082807000d10488000001780041
:104600000208b2004711de00610161004f11dd00b8
:10461000d104800001f0a10082807000d1048800e4
:104620008c00a9004801de006701610023068000bc
:1046300081ff2f0081806100828070002106880048
:104640004b00de0061006000e10480000100a10079
:1046500080807000e10488000000060061016100b4
:10466000530e80000300a10082817100530e880068
:104670000000e90000004000621d200001317800c8
:10468000000006008460a900670160004c11dd0095
:1046900023058000f1ff2800818061008280700086
:1046a0002105880068006000a10480000130a1009d
:1046b00080807000a10488000000060084e0a9004a
:1046c000670160004c11dd0033058000f1ff280018
:1046d0008180610082807000310588006800600080
:1046e000c300de00e1806000c708dd00a004800098
:1046f0000070a10001007000a00488000000060006
:104700008a00a90067016000e305800081ff2f0097
:104710008180610082807000e1058800680060008f
:104720004300de0061006000d10480000100a100b0
:1047300080807000d1048800000006000021ef0096
:104740001108880020088800000006000621ef00fc
:1047500061088800800888001061a9000000060038
:104760002621ef005109880070098800000006002a
:104770003021ef00b1098800d00988000000060050
:104780003009800000000600500888000000060084
:1047900030098800000006000802d5006140600072
:1047a000000006001802d50061406000000006000d
:1047b0001600200001f0a30004003900f2ff2f00d2
:1047c0000192b9000010b900810042004f89de005b
:1047d000cf89de00e4062300f5452100861f78001e
:1047e000810178000403b8000500b8008703400089
:1047f000608348000418b80087034000068348001f
:104800000518b80006034000e08148000410b80015
:1048100006034000838148000510b8008301400072
:1048200083014000860278004f03780004002200d4
:104830008480430060814a00e0814900ce08de00a8
:104840004212dd00048070004e11de00421add00cd
:10485000840071000100a7000603ea0000f0a70031
:104860000603ea0000f0a70060001000d117250041
:104870000100e1002f003100814826000100b8004e
:104880004d00de00c308dd0081007000c01b200069
:104890000008e10003003100f0ff2f000030b900f4
:1048a0000000060002002000130020000108b800ec
:1048b00081037800040028000122b800050151009e
:1048c000e08159000708b800545525000122b800be
:1048d000c3aade0005014100e08149000708b800d5
:1048e00034d822000122b800c7aade000501510019
:1048f000e08159000708b800040d20000122b8002b
:10490000c7aade0005014100e08149000708b800a0
:10491000240020000122b800c7aade0005015100d2
:10492000e081590003b2b9000230b90081004200b1
:104930000000060001002800008050008148260089
:104940000100b8004d00de00c308dd0081007000ea
:10495000810378000109b8000308b800505525000c
:10496000000ab800c1aade00858353000308b8001e
:1049700040442400000ab800c5aade008583430035
:104980000308b80000682000000ab800c7aade00cb
:10499000858353000730b90000000600889fbe00e1
:1049a0008a9fbe008c9fbe00cf8bde004f9bde0037
:1049b0000204b8000306b8008904460060854e0072
:1049c0000606b8000a054600e0854e000606b80057
:1049d0008b054600020eb800890446000a854e0089
:1049e000e0854d00030eb8000a0546008b854e0099
:1049f000060eb8008b054600023eb8000a054600c8
:104a00008b854e00033eb8008b054600023eb80081
:104a10008b0546000b00e00002003a000af0a300fc
:104a2000150039000af0a60020003700e185450096
:104a30000b00e0001d003a0005f0a600080037005a
:104a40000480440085004d0001f0a60023003700db
:104a50004f06be004f05be004f04be00000006001a
:104a60000480440085004d004f06be004f05be0087
:104a70004f04be000000060005f0a700f8ff370055
:104a80000480440085004d00e0854d000b00e000ef
:104a900006003a0001f0a700040037004f06be00f0
:104aa0004f05be004f04be00000006000bf0a7003b
:104ab0000a003700f0ff2f00f1ff27004f06be006d
:104ac0004f05be004f04be00000006004f06be00aa
:104ad0004f05be004f04be0000000600000020008d
:104ae000010028004f06be004f05be004f04be0067
:104af000000006000000e00006003a000200280066
:104b00000110e10003003a008180ea000080ea0021
:104b100000000600f2ff2f000192b9000010b9005a
:104b200081004200000006001600200001f0a300f2
:104b300004003900f6ff2f0001b2b9000030b900bf
:104b400081004200861f78004f89de00cf89de0099
:104b5000e4062300f5452100810178000403b80034
:104b60000500b80087034000608348000418b800bf
:104b700087034000068348000518b800060340007c
:104b8000e08148000410b80006034000838148001b
:104b90000510b800830140008301400086027800c0
:104ba0004f037800040022008480430060814a00a3
:104bb000e0814900ce08de004212dd000480700072
:104bc0004e11de00421add00840071000100a700d2
:104bd0000603ea0000f0a70060001000d1172500ce
:104be0000100e10018003100814826000100b800f2
:104bf0004d00de00c308dd008100700081037800f5
:104c00000109b8000308b80050552500000ab80093
:104c1000c1aade00858353000308b8004044240085
:104c2000000ab800c5aade00858343000308b80067
:104c300000682000000ab800c7aade008583530080
:104c40000730b90000000600010028000080500075
:104c5000814826000100b8004d00de00c308dd00d9
:104c600081007000c01b20000008e100030031003b
:104c7000f0ff2f000030b900000006000200200005
:104c8000130020000108b800810378000400280008
:104c90000122b80005015100e08159000708b80061
:104ca000545525000122b800c3aade0005014100c9
:104cb000e08149000708b80034d822000122b8007a
:104cc000c7aade0005015100e08159000708b800bd
:104cd000040d20000122b800c7aade000501410032
:104ce000e08149000708b800240020000122b80034
:104cf000c7aade0005015100e081590003b2b900e6
:104d00000230b9008100420000000600809fbe0012
:104d1000a7fe0700120007000001be004f00be0002
:104d2000829fbe0080ff07004f01be000100070008
:104d3000000006000202b800020bb9000682420021
:104d4000e0824b000383b8000388b900860042006c
:104d500000804b00008042008000fd000000060043
:104d600000027800810278000000e00010003a00a4
:104d70000200280081017800e0ff2f00cf80de00d4
:104d80000218e70000000600f2ff270020002000c4
:104d9000cf80de000218e70000000600f0ff2f00c1
:104da000f1ff27000001eb000218e70000000600f9
:104db0000400780085007800889fbe00180020005d
:104dc00001f0a30004003900f8ff2f0001c2b90070
:104dd0000040b90081004200881f7800000178007f
:104de000810178000300e00014003a001400200064
:104df0000220e10007003a00f0ff2f00f1ff27003a
:104e000001c2b9000040b900810042004f04be0059
:104e100000000600240020000220e10007003a0004
:104e2000f0ff2f00f1ff270001c2b9000040b900d8
:104e3000810042004f04be00000006008181cf00c7
:104e40000300e00004003a000118e700030120001d
:104e50000081cf0083014100e28151007018e10020
:104e600005003c00708111000202de008308dd00b5
:104e70008480700002003700708151008200dd00e4
:104e800004002800810252006118e1008300340010
:104e90008a9fbe008c9fbe000000220006002800f2
:104ea000050343000625b8004f55de00c15ddd0057
:104eb0000b027500052db80000054500e0854d008a
:104ec0004e55de00c25ddd008b027500e0834200be
:104ed0000725b8006126b9008c8545000b027800d3
:104ee000052db800e1854500c1dade000000240090
:104ef00006002800850343000725b8004230de0085
:104f000000054500e0854d004f55de00c15ddd0028
:104f10000b027500052db80000e0230000054500d8
:104f2000e0854d004f55de00c15ddd008b02750050
:104f3000850343000725b8004f52de00415cdd00c9
:104f4000080272004f5cde0000002400052db8004e
:104f500000054500e0854d004f55de00c15ddd00d8
:104f60008b02750085034300043db80008beb900fc
:104f70008c8545004f52de00415cdd000802720066
:104f80004f5cde00052db80000054500e0854d00b2
:104f90004f55de00c15ddd008b02750085034300c7
:104fa000043db80008beb9008c8545004f52de00b4
:104fb000415cdd00080272004f5cde00052db80088
:104fc00000054500e0854d004f55de00c15ddd0068
:104fd0008b02750085034300043db80008beb9008c
:104fe0008c8545004f52de00415cdd0008027200f6
:104ff000cf5ade00120020007018e10004003c00cf
:10500000f08011008110de000310dd000300370086
:10501000f08051008110dd000000eb004f89de00c0
:10502000820178004fabde00860378000404b800ec
:105030000506b8008904460060854e000606b800e3
:105040000a054600040eb800890446000a854e0091
:10505000050eb8000a0546000416b8000a05460009
:105060008b0546004e40de00424add000400700021
:10507000ce48de004252dd00848070004f06be0044
:105080004f05be004f04780001c2b9000040b900ce
:10509000810042004f04be00000006000300e00053
:1050a0007c0034008a9fbe008c9fbe00000022005e
:1050b00006002800850343000725b8004f55de0091
:1050c000c15ddd000b027500052db800000545002f
:1050d000e0854d004e55de00c25ddd008b0275009f
:1050e000e08342000725b8006126b9008c854500a1
:1050f0000b027800052cb80006044400e0844c0044
:10510000c1cade004100dd0006002800850343001f
:105110000725b8004f55de00c15ddd000b027500ac
:10512000052db80000054500e0854d004f55de0017
:10513000c15ddd008b027500850343000725b800c3
:105140004f55de00c15ddd000b027500052db80076
:1051500000054500e0854d004f55de00c15ddd00d6
:105160008b027500850343000725b8004f52de000f
:10517000415cdd00080272004f5cde00052db800c6
:1051800000054500e0854d004f55de00c15ddd00a6
:105190008b02750085034300043db80008beb900ca
:1051a0008c8545004f52de00415cdd000802720034
:1051b0004f5cde00052db80000054500e0854d0080
:1051c0004f55de00c15ddd008b0275008503430095
:1051d000043db80008beb9008c8545004f52de0082
:1051e000415cdd0008027200cf5ade001200200090
:1051f0007018e10004003c00f08011008110de0016
:105200000310dd0003003700f08051008110dd0045
:105210000000eb004f89de00820178004fabde001a
:10522000860378000404b8000506b8008904460027
:1052300060854e000606b8000a054600040eb80058
:10524000890446000a854e00050eb8000a0546008e
:105250000416b8000a0546008b0546004e40de00e5
:10526000424add0004007000ce48de004252dd00fc
:10527000848070004f06be004f05be004f047800ca
:1052800001c2b9000040b900810042004f04be00d5
:10529000000006008a9fbe008c9fbe000000240014
:1052a00006002800850343000725b8004f55de009f
:1052b000c15ddd000b027500052db800000545003d
:1052c000e0854d004f55de00c15ddd008b027500ad
:1052d000850343000725b8004f55de00c15ddd00a2
:1052e0000b027500052db80000054500e0854d0056
:1052f0004f55de00c15ddd008b0275008503430064
:105300000725b8004f55de00c15ddd000b027500ba
:10531000052db80000054500e0854d004f55de0025
:10532000c15ddd008b027500850343000725b800d1
:105330004f55de00c15ddd000b027500052db80084
:1053400000054500e0854d004f55de00c15ddd00e4
:105350008b0275000004eb00850343000725b800ad
:105360004f52de00415cdd00080272004f5cde003f
:10537000052db80000054500e0854d004f55de00c5
:10538000c15ddd008b02750085034300043db8005c
:1053900008beb9008c8545004f52de00415cdd003f
:1053a000080272004f5cde00052db80000054500c4
:1053b000e0854d004f55de00c15ddd008b027500bc
:1053c00085034300043db80008beb9008c85450044
:1053d0004f52de00415cdd0008027200cf5ade0051
:1053e000120020007018e10004003c00f080110061
:1053f0008110de000310dd0003003700f080510053
:105400008110dd000000eb004f89de008201780092
:105410004fabde00860378000404b8000506b80030
:105420008904460060854e000606b8000a0546005d
:10543000040eb800890446000a854e00050eb80027
:105440000a0546000416b8000a0546008b0546000a
:105450004e40de00424add0004007000ce48de000f
:105460004252dd00848070004f06be004f05be0032
:105470004f04780001c2b9000040b9008100420029
:105480004f04be000000060003f0a200889fbe008b
:105490008a9fbe008c1f7800280107002f0133006f
:1054a0006450e1004f0032006420e10052003200fd
:1054b00003826c0007003b000905d0000306d00002
:1054c000820f54000c065d00020039000200320019
:1054d00089017800030678008582550004003d00ac
:1054e0000003fd008103fd008502ea008b85420078
:1054f000840f720002003b0060001000e080180082
:105500006011b8000005eb007a28e1000a003900bc
:1055100006007800c75ddd00f707b20087807500e0
:105520002d003700828171000a017800610560005a
:105530008180d1000080d3008502e900f9ff3b00a3
:10554000060440008784480002003b006004140009
:10555000e0841c000988a300070032008a817100e2
:1055600082817100610164008904d1000884d30044
:105570008b05e800170037000978a30013003a00f4
:105580000b00e000130034008b05e9000804440020
:1055900089844c000a4474000978a3000d003a0085
:1055a0000b00e000070034008b05e900080444000c
:1055b00089844c0001003a000b0020000978a30008
:1055c000f7ff32000001eb0002003700828171001a
:1055d0000a0178009e0007000cf0a70001f0a0006f
:1055e000e70037006420e10002003a00838f6c007e
:1055f000e70033000801be000200be00e0003700f3
:10560000889fbe008a9fbe008c1f7800cb000700d9
:10561000d200330003866c006450e1002e0032009b
:105620006420e100330032006150e1002f003200bd
:105630006120e1003100320085855500eb07b000a4
:105640000900200008042000050037000804440079
:1056500089844c000a0031000603430087834b0015
:105660000001530081815b00f8ff33000203be009c
:105670000800a0000804440089844c00f6ff3900ab
:10568000c639dd00830173000100320013002000e1
:105690008904d1000884d3000998a30005003200d2
:1056a0000800a7000300a0008904d1000884d300eb
:1056b0008b05e8008904d1000884d3000001eb00c9
:1056c0000281d2006200070001f0a1000cf0a700e7
:1056d00001f0a000aa0037006420e100ac00320015
:1056e0000801be000200be00f7ff37006120e100a4
:1056f000a70032006000b800f3ff37000000200070
:1057000001f82700f0ff3700839f68000100e000e8
:1057100002003d0060001000e08018000300e0007f
:1057200002003d0060011100e0811900cf00070078
:105730004f00e00002003b0060001000e080180015
:1057400000000600f4ff2f00d80037000001be0063
:10575000650007000470a70003f0a1006509b1000f
:10576000160032000d0035006828e1000600350003
:10577000f0ff2f00f1ff27000300e00013003b00c3
:105780000100280000000500000040008180480062
:105790008502e900fcff3a0008003700f88f42005c
:1057a00002003c008000eb00000005008100d100f9
:1057b0000080d3008502e800fcff3a000300e0000f
:1057c00002003b0060001000e080180000000600ae
:1057d0000001be00440007000470a70003f0a10010
:1057e00003f8a30013003a006509b100100032006d
:1057f000090035006928e100020035000100280099
:105800000000050000004000818048008502e9009a
:10581000fcff3a0000000600f88f4200050035004a
:105820008100d1000080d3008502e800fcff3a002f
:10583000000006008000eb00000005004f89de003c
:1058400082017800b40037006011b800c200370050
:1058500081002000618055000b003d000b002000fe
:1058600061fe2f000100e1001d0034008281710003
:10587000610164008904d1000884d3000000e800bd
:10588000faff3a007100200061006400030070001c
:10589000020060000900320061044400e0844c0012
:1058a0000988a500050032008b05e8006808e100c2
:1058b00002003a008904d1000884d300f20f2000ce
:1058c0000258e10005003d00c75ddd00f907b200a8
:1058d0008980750008007800000006000bf827009a
:1058e0008b00780000000500c70ade00f107b20057
:1058f000f50fb20008003200e1cf42000200320092
:105900000170a00024000500810f7000010032002a
:105910000408050044000500810f700002003a00f1
:10592000140005008502e9000000400081c0480025
:10593000fcff3b000170a000240005000004be0035
:10594000e9ff07000003be000405be000200be0020
:10595000e5ff0700844f7500000006000200be004e
:105960006450e100050036006420e10002003600ca
:105970000968a30001003a000800be000160a00011
:105980004f0678004f05be004f04be000000060021
:10599000f0ff2f00f1ff2700f9ff3700889fbe00be
:1059a0008a9fbe008c1f7800e4ff0700ebff3300e6
:1059b00003866c006450e100240032006420e100a2
:1059c000270032006150e100220032006120e10036
:1059d000210032008b854200eb07b1000134b80092
:1059e000003ab8000804420089844a00013ab8002d
:1059f0000030b8008880400009014a0004003300ec
:105a00000000400081804800020149008b05e90048
:105a1000c909dd008301700001003200130020007d
:105a2000c814de004814dd004709de001200b20091
:105a3000c808de000884700085ff070001f0a1009f
:105a40000cf0a70001f0a000cdff37006120e100bd
:105a5000cfff32000801be000200be00f7ff370092
:105a60006150e100fcff3a00c9ff37006022b80036
:105a7000060220000000d0008180d2000482d20003
:105a80008582d2000000a0000202520083825a00e8
:105a9000030031000202420083824a000000a1009c
:105aa0000603e900f3ff3a0000000600889fbe00ed
:105ab0008a9fbe00841f7800a0ff07004f00780077
:105ac00011003300f0ff2f00838f6c0006003b00b5
:105ad000040565000a00a7000800370009f0a600c9
:105ae0001000200008003700820f5400838f5c00f4
:105af000030039001000200001003e0000002000db
:105b000009f0a7000000ea004f05be004f04be00e8
:105b10000000e00000000600881f78000304780001
:105b20000300e00007003d0060001000e080180066
:105b300060011900e081190002003b0001f02d0016
:105b4000030037000400070008f0a70001f0a000e0
:105b50004f04780000000600889fbe008a9fbe00a8
:105b6000008270000402710004827100260032007d
:105b70000004be000200be006011b8006b092000e6
:105b8000950220000182cf000a0039000541b100d2
:105b90000082cf00070039000541b1000982cf0023
:105ba000040039000541b1000882cf00010039002e
:105bb0000541b10005425200120032000a003b00cc
:105bc00082817100610164008100d1000080d300f6
:105bd0008984d3000884d3008b05e8000442e800e0
:105be000f7ff3a00070037000804440089844c009e
:105bf00000004800818048008b05e9000442e9006c
:105c0000f9ff3a0012ff07004f05be004f04be0027
:105c100000000600e4874700889fbe008a9fbe0000
:105c20008c9fbe008e1f7800c19d2000e24e800038
:105c3000e00f51000b003a0064814000e24e880002
:105c4000324f8800a1009800214f88002141900028
:105c50000204a000a2409800614190000204a0004c
:105c6000e2409800670440004244de004244dd0008
:105c7000214f80000002eb00ee9e2000e99e2200f2
:105c80008e8454006400440080bf9f00614eb900c0
:105c9000010037008b007800214090006100600017
:105ca000020032000a003700930878009101780062
:105cb0002340900061006000fbff3200088140003b
:105cc000828f510002003900e00f540054003d0063
:105cd00091057800818f5500eeff3e008e8f5500b4
:105ce00003003900c09d2000808f5500e9ff390076
:105cf000304f8000808f50005a003a00c09d200035
:105d0000808f550057003a000402e800e10f52006e
:105d1000e0ff360022002000811f780011000900fa
:105d20008204d800cf007800800f540005003600b0
:105d3000890f5400030031000885e8000a0545007a
:105d4000140037006142b800b2ff2f0003002000aa
:105d50000c0151008d815900820f5200838f5a002f
:105d60000b003d00129f22000e015100080141006e
:105d7000809fbe00110009000981d8000001780051
:105d80004f00be000991b9000205780001003700fc
:105d9000080578000a007800a0000700e10f400025
:105da00005003a000fbd97000a0078009b0007002d
:105db000e10f40002b003200314f80008008780056
:105dc000314f8000e481400021419000830f50005a
:105dd000020032000204a000010037000204a1000a
:105de000a2409800640555000a0540000a087800a2
:105df0003a4f8800c19d2000010d7800324f80008d
:105e0000a24090000104a00021419800a040900011
:105e10000104a100214098000002eb009dff370023
:105e2000224f8800828f5100070036001202be0008
:105e3000444f8800554f8800110978000040eb005e
:105e4000224f800020419800254f8000850878006f
:105e5000214090000004a000a04098006480400011
:105e6000010037000000eb004f0778004f06be002e
:105e70004f05be004f04be004f00b10000000600f9
:105e800064005000204f8800a04090000104a10051
:105e90002140980000000600889fbe008a9fbe0037
:105ea0008004780001047800648154009205780031
:105eb00069f9970061016100020032000900780071
:105ec000efff07000800780052ff07000004780089
:105ed000e00f54001b003200890f540019003200fb
:105ee00068bd97000805550042d5de0009805500c1
:105ef0004280de000a017800800f55000100360064
:105f0000000178004211dd000800be002e000700ed
:105f1000890f54000b0031004255dd000a05440092
:105f2000890f55000700360089045500c2ccde00f9
:105f3000c24cdd0089044400404f8000514f800076
:105f4000808cbe00080078004f05be004f04be00e4
:105f500000000600889fbe008a1f780000047800b9
:105f6000010578006150b8006141b8004d0007009c
:105f70006101b8008004eb00820f5000838f58004d
:105f80000d003a0008d0b9000004780021ff070096
:105f9000890f5000080032008000780002003700ae
:105fa0008058eb00020478000801e900e00f54007b
:105fb000fbff3a0080047800090078004f05780064
:105fc0004f04be0000000600800178000200370088
:105fd000b1597800040178000202e900e00f510095
:105fe000fbff3a0000000600800178003141780094
:105ff00082597800e04f5100fcff3a000000060093
:10600000800078000041eb00b14f1100fdff3a0025
:106010000080ea000080400000000600889fbe006b
:1060200080047800604f8000e00f500004003a00c8
:106030000e0007000084eb00e00f50000800350060
:10604000684f8000e08f54000500320009004400d2
:1060500006000700e00f500001003d000084eb0047
:10606000080078004f04be0000000600e00f50005a
:1060700004003a00e19e2000614f88008000780013
:10608000060037008080eb00e29e2200820f500065
:1060900002003e00604f88008000eb0001007800a5
:1060a00000000600020ab900001bb9000200b80097
:0c60b00081004200810043000000060057
:020000040000fa
:10000800987d0000987d0000987d0000987d000094
:10001800987d0000987d0000987d0000987d000084
:10002800987d0000987d0000987d00001a3a000035
:10003800987d0000987d0000987d0000ca3f000070
:10004800f4490000987d0000987d0000987d00002c
:10005800987d0000987d0000987d0000987d000044
:10006800987d0000987d0000987d0000987d000034
:100078001c630000987d0000987d0000987d0000ba
:1000880088690000987d0000987d0000987d000038
:10009800987d0000987d0000987d0000987d000004
:1000a800987d0000987d0000987d0000987d0000f4
:1000b800aa690000987d0000987d0000987d0000e6
:1000c800987d0000987d0000987d0000987d0000d4
:1000d800987d0000987d0000b2690000987d0000be
:1000e800224d0000987d0000987d0000987d00005a
:1000f800987d00005a6d000068450000987d00005a
:10010800987d0000987d0000987d0000987d000093
:10011800987d0000d4690000987d0000987d00005b
:10012800987d0000987d0000987d0000987d000073
:10013800987d0000987d0000987d0000987d000063
:10014800987d0000987d0000987d0000987d000053
:10015800987d0000987d0000987d0000987d000043
:10016800987d0000987d0000987d0000987d000033
:10017800987d0000987d0000987d0000987d000023
:10018800987d0000987d0000987d0000987d000013
:10019800987d0000987d0000987d0000987d000003
:1001a800987d0000987d0000987d0000987d0000f3
:1001b800987d0000987d0000987d0000987d0000e3
:1001c800987d0000987d0000987d0000987d0000d3
:1001d800987d0000987d0000987d0000987d0000c3
:1001e800987d0000987d0000987d0000987d0000b3
:0801f800987d0000987d0000d5
:020000040000fa
:10020800987d0000987d0000987d0000987d000092
:10021800987d0000987d0000987d0000987d000082
:10022800987d0000987d0000987d00001a3a000033
:10023800987d0000987d0000987d0000ca3f00006e
:10024800f4490000987d0000987d0000987d00002a
:10025800987d0000987d0000987d0000987d000042
:10026800987d0000987d0000987d0000987d000032
:100278001c630000987d0000987d0000987d0000b8
:1002880088690000987d0000987d0000987d000036
:10029800987d0000987d0000987d0000987d000002
:1002a800987d0000987d0000987d0000987d0000f2
:1002b800aa690000987d0000987d0000987d0000e4
:1002c800987d0000987d0000987d0000987d0000d2
:1002d800987d0000987d0000b2690000987d0000bc
:1002e800224d0000987d0000987d0000987d000058
:1002f800987d00005a6d000068450000987d000058
:10030800987d0000987d0000987d0000987d000091
:10031800987d0000d4690000987d0000987d000059
:10032800987d0000987d0000987d0000987d000071
:10033800987d0000987d0000987d0000987d000061
:10034800987d0000987d0000987d0000987d000051
:10035800987d0000987d0000987d0000987d000041
:10036800987d0000987d0000987d0000987d000031
:10037800987d0000987d0000987d0000987d000021
:10038800987d0000987d0000987d0000987d000011
:10039800987d0000987d0000987d0000987d000001
:1003a800987d0000987d0000987d0000987d0000f1
:1003b800987d0000987d0000987d0000987d0000e1
:1003c800987d0000987d0000987d0000987d0000d1
:1003d800987d0000987d0000987d0000987d0000c1
:1003e800987d0000987d0000987d0000987d0000b1
:0803f800987d0000987d0000d3
:020000040000fa
:1060bc00596f0000752000006d75000073740000ae
:1060cc002062000065200000686500007265000019
:1060dc00207400006f20000066690000782000002a
:1060ec00746800006520000063610000626c0000b1
:1060fc00652e0000004c00006f720000642e000042
:10610c00205900006f75000020630000616e0000d4
:10611c00206900006d610000676900006e65000079
:10612c00207700006865000072650000206900009f
:10613c0074200000676f000065730000206600008b
:10614c00726f00006d200000686500007265000031
:10615c002e000000486500002066000069780000f1
:10616c006573000020740000686500002063000067
:10617c00616200006c6500003f000000446f00008d
:10618c006e2700007420000062650000206600008d
:10619c0061740000756f0000757300002c20000006
:1061ac004a6500006666000072650000792e0000ea
:0461bc0000000000df
:020000040000fa
:1061c0000200fa000000eb00000f78000700370023
:1061d0001e00780080004000008a200000804000ff
:1061e000219c2300010878001e0fe8001e007800a3
:1061f000ff0f5000f6ff3600e030230030468800e5
:10620000005e2300f0468800404d230010468800c1
:106210008042230000468800005c2300204688005e
:10622000e01a23004046880040282300504688009a
:10623000c0632300a0458800605f230020458800dc
:106240002068230010458800c07523003045880071
:10625000806c230060458800406d230070458800f5
:106260008094230080458800a096230090458800f4
:10627000c0632300a0458800a0662300b0458800c5
:10628000e098230080468800001d23009046880087
:10629000409b2300a0468800008e2300c045880054
:1062a000a0162300d045880000192300e04588008f
:1062b000c28820006000b8000089be00c2882000ab
:1062c0006000b80020019800310198000080fa00b9
:1062d000000006000400fa00004f78001147980003
:1062e00012079800501680004d00de0061406000eb
:1062f00000c0ea00614060000080fb0061006000b7
:106300004d00dd0052168000f1ff2d00810061007c
:1063100000807000501688000080fa00000006001f
:106320000800fa004047980051479800320798004b
:10633000070e07000000eb00000f7800f0092000b6
:106340009e007800808f5000fcff3400760e07001e
:10635000100798000080fa00000006000400fa0010
:10636000004f780011479800120798001e00900017
:106370000000e800104078000080fb0001002000d1
:1063800031fd07001e019000124278000001be009e
:1063900004407800462307000080fa000000060051
:1063a0000a00fa0060479800714798004207980079
:1063b0004e00900010407800204798004e0090005a
:1063c0000000e80010407800304798004e00900030
:1063d0000080e80010407800404798004e00900090
:1063e0006300400010407800504798001e00900065
:1063f000cf80de0011fd070002e02f00f36f2400c4
:106400007ffc070002002000832c240063fd0700ae
:10641000c28820000089be002e009000cf80de00e0
:1064200006fd070002e02f00f36f240074fc070054
:1064300002002000832c240058fd0700c2882000a1
:106440002001980031019800501680004d00de00b8
:106450006140600000c0ea00614060000080fb0015
:10646000610060004d00dd0052168000f1ff2d003c
:106470008100610000807000501688005016800076
:106480004c00de006140600000c0ea006140600036
:106490000080fb00610060004c00dd0052168000af
:1064a000f1ff2e008100610000807000501688000e
:1064b000401680004700de00614060000080fb0065
:1064c000000f78001e007800e00f500007003a002f
:1064d000c0882000b0009000200090000001be00a5
:1064e00010c0b300f222070005003700c08820006a
:1064f0001000be000001be0010c0b300ec22070077
:106500000080fa00000006000400fa00004f780046
:1065100011479800120798001e0090001040780064
:10652000e04f500004003a00d581a800d5a1a90091
:10653000d4a1a900070037001e0090001040780089
:10654000e14f500003003a00d5a1a800d581a90071
:10655000d481a9001e0090000000e80010407800df
:106560000080fb0001002000b7fc07000001be0016
:1065700030c0b300ce2207000080fa000000060001
:106580000600fa00889fbe00d10a0700000f7800bd
:106590001e007800e00f50001d0032001e00780041
:1065a000b7140700100798001e009000861f070010
:1065b000404798001e009000721f07005047980047
:1065c0005e409000ff4f50000f003e005e40900084
:1065d0000080fb0080004000008a20000080400016
:1065e000900478001e0090003d1f07000004780012
:1065f0001e009000531f07000801780080407800bb
:106600004e409000090001001e007800130b0700a7
:106610004f04be000080fa00000006001400fa00db
:106620000057980011579800120f98001e0890000c
:10663000104078008080fb001e0890000000e800f9
:10664000104078000080fb004800dd000080400022
:10665000300798001e0890000080e8001040780085
:106660008080fb001e08900063004000104078000e
:106670000080fb004800dd000080400040079800db
:106680001e08900064004000104078008080fb00ed
:106690001e08900065004000104078000080fb005c
:1066a0004800dd000080400050079800cb82a90020
:1066b000cba2a800cbc2a9000000eb0020079800e5
:1066c0003e009000000f7800510037000000eb0002
:1066d00010079800290037005e009000c30a0700e9
:1066e000600798006e009000e00f5000220032001a
:1066f0008000eb006e0090001914070011102000bc
:106700006e0090000e1407006e0090005c140700ed
:10671000700798007e009000f11e0700800178004d
:106720005e0190009e0090001e007800650f07003b
:1067300031c1b3007e009000081f07006e0090007a
:106740006d0a0700e00f500001003200cd0a07007b
:1067500040012000df2407009e0090005e009000b2
:1067600000804000100798002e0090000000e80014
:106770002007980001003700000000009e009000f4
:106780005e0090008080400080102000808f5000cc
:10679000d1ff36001e0fe800000820001e00600038
:1067a000e00f50001a003200501680004c00de004e
:1067b0006140600000c0ea00614060000080fb00b2
:1067c000610060004c00dd0052168000f1ff2e00d9
:1067d0008100610000807000501688005016800013
:1067e0004d00de006140600000c0ea0061406000d2
:1067f0000080fb00610060004d00dd00521680004b
:10680000f1ff2d00810061000080700050168800ab
:106810004e00900041062000808040002e00900035
:10682000808f5000a9ff3e00cb82a800cba2a80019
:10683000cbc2a800007d2000a6240700cb82a900bf
:10684000cba2a900cbc2a9000080fa00000006007c
:106850000800fa0040479800514798003207980016
:106860003e0090000080e80010407800204798002b
:106870003e009000630040001040780030479800d0
:106880003e00900010407800e14f500015003a00a3
:10689000d8230700a04488003e0090006400400018
:1068a00010407800004178001e00900080017800c0
:1068b0003e0090000000e800104078008040780022
:1068c0003e00900010407800a5448000024278000d
:1068d000014178008040780005007800d923070046
:1068e000180037003e00900010407800e04f500044
:1068f00014003a00bf230700b04488003e00900017
:106900006400400010407800004178001e009000b4
:10691000800178003e0090000000e8001040780000
:10692000804078003e00900010407800b544800020
:10693000024278000141780080407800050078002c
:10694000c02307000000eb00000f780010003700a4
:10695000501680004e00de006140600000c0ea007a
:10696000614060000080fb00610060004e00dd00bf
:1069700052168000f1ff2b00810061000080700042
:106980005016880060092000522407001e0fe800fe
:106990001e007800e50f5000edff3400cbc2a800c8
:1069a0000080fa00000006000c00fa00004f98007a
:1069b000114f9800520798001e4890008080fb00fd
:1069c0007000200000017800110009008280d800ca
:1069d0000040780099e8b70099c8bf000080fb002c
:1069e000000040008bfc0700004788005e0090001c
:1069f0001040780098e8b70098c8bf00e14f5000f9
:106a000004003a0000202000404488000000eb0011
:106a1000504488000000eb00000f78003b00370076
:106a20003f230700200798001e0078006700b90088
:106a3000000078000000e800de00900000804000c8
:106a400010407800604798001e0078006700b90089
:106a5000000078000080e800de0090000080400028
:106a600010407800704798001e0078006700b90059
:106a70000000780063004000de00900000804000cd
:106a800010407800be009000004178002e00900079
:106a90003d2307000000eb001007980011003700ad
:106aa0002e009000b00090001e0090000081400079
:106ab0001e0078006700b90000007800e400400084
:106ac0001e00900000804000de009000008040002a
:106ad00010407800004978001e0090000000e80097
:106ae000100798001e009000e30f5000ecff3400e8
:106af000014780001e007800000040000080400038
:106b0000ae009000010878001e0fe80099c8bf0091
:106b10000080fb009e0f5000c1ff3c000000eb0016
:106b2000000f780010003700501680004e00de0085
:106b30006140600000c0ea00614060000080fb002e
:106b4000610060004e00dd0052168000f1ff2b0056
:106b500081006100008070005016880060092000ec
:106b6000dc2307001e0fe8001e007800e50f500030
:106b7000edff3400cbc2a8000080fa000000060040
:106b80000400fa00004f780011479800120798009f
:106b90000040eb00e2e8b70010c0b300601e070041
:106ba0004d23070020478800314788000000eb0094
:106bb000d04488009460a8000080fa00000006001d
:106bc0000400fa00004f780011479800120798005f
:106bd000f3c1b3001e0190009e4090001e4078005b
:106be000ef0107000080fa00000006000600fa002e
:106bf0002047980031479800220798000000eb00da
:106c0000000f780016003700501680004c00de00a0
:106c10006140600000c0ea00614060000080fb004d
:106c2000610060004c00dd0052168000f1ff2e0074
:106c3000810061000080700050168800691b070009
:106c400023c0b3000001780061c0b3002e40900063
:106c5000d3010700803e20009e2307001e0fe8009e
:106c60001e007800e90f5000e7ff3400cb82a90036
:106c70000080fa00000006000600fa002047980095
:106c800031479800220798002e00900010407800ad
:106c90008080fb002e0090000000e800104078008b
:106ca0000080fb004800dd0000804000000f7800fd
:106cb000cba2a800cb82a900cbc2a8001e007800fe
:106cc000e1140700cba2a900cbc2a9000080fa0002
:106cd000000006000400fa00004f780011479800f9
:106ce00012079800c6140700b3c0b3000001780073
:106cf000c1c0b3001e407800a90107000080fa005f
:106d0000000006000600fa0020479800314798006e
:106d1000220798000000eb00000f780016003700f3
:106d2000501680004c00de006140600000c0ea00a8
:106d3000614060000080fb00610060004c00dd00ed
:106d400052168000f1ff2e0081006100008070006b
:106d5000501688000d16070013c0b300000178001c
:106d600061c0b3002e4090008d010700803e2000de
:106d7000582307001e0fe8001e007800e90f50009e
:106d8000e7ff3400cb82a9000080fa000000060073
:106d90000400fa00004f780011479800120798008d
:106da0000080fa00000006000600fa002047980064
:106db00031479800220798004119800000fe2f00fb
:106dc00000806000401988002023a8000000000017
:106dd0000019800061006000e00f5000fcff3200ed
:106de0002023a9002003a900501680004800de00df
:106df0006140600000c0ea00614060000080fb006c
:106e0000610060004800dd0052168000f1ef2f00a5
:106e1000810061000080700050168800001880001a
:106e2000000f78001e407800ae0090008048780087
:106e30002e0090008000e8001e40900080487800fe
:106e40004119800000fe2f00008060000000a000bb
:106e5000401988002023a8000000000000198000cd
:106e600061006000e00f5000fcff32002023a90009
:106e70002003a90000188000000f78002e00900069
:106e80008080e8001e407800804878002e00900046
:106e9000e30040001e4090008048780073c0b300bb
:106ea0002e01900041c0b3002e4090003c0107002d
:106eb0000080fa00000006000e01fa00889fbe0064
:106ec0008a1f7800204f9a00314f9a00620799007c
:106ed0000e007800a000b0007f0009000018eb0051
:106ee000e0052b00000f780010082b001007980019
:106ef000000b2b0020079800400c2b003007980057
:106f00006a0047009e00780037fc07006a044700cb
:106f10001e0078003afc0700000044009e0090002c
:106f200031fc0700ea0447001e00780034fc07002b
:106f3000000478001e00900031fc070000004400af
:106f400000804400ae00900027fc0700ea044700e0
:106f50001e0078002afc0700000478001e00900044
:106f600027fc0700000444002e00900024fc0700ca
:106f70000000440000804400be0090001afc07009e
:106f80006a00470014c0b3008001eb00021020002b
:106f900001102000cd0c07001e00780018fc07002f
:106fa000004078003d1c0700400798004e0090000c
:106fb000cb1c0700000478001e00780010fc0700be
:106fc00088017800000178008000eb0000102000ac
:106fd0003c0d07004e009000c11c07000004780023
:106fe0001e00780006fc07000040780033c0b300a4
:106ff00008017800804078002e489200e8000700e1
:107000004e009000f71c070040062000b122070048
:107010001e009000fafb0700004078001f1c0700cc
:10702000400798004e009000ad1c070080047800d7
:107030001e009000f2fb0700000478001e0078009c
:10704000effb0700890178000801780080007800d4
:10705000001020001b0d07004e009000a01c070030
:10706000000478001e009000e5fb07000040780057
:1070700033c0b30008017800804078002e489200a9
:10708000c700070040062000922207002e00900053
:10709000dbfb070000407800001c07004007980059
:1070a0004e0090008e1c0700800478002e00900097
:1070b000d3fb0700000478001e007800d0fb070017
:1070c000000578001e009000cdfb07000000450081
:1070d0008901780008017800800078000010200005
:1070e000f80c07004e0090007d1c0700000478009b
:1070f0002e009000c2fb07000040780033c0b300b0
:1071000008017800804078002e489200a400070013
:10711000400620006f2207003e009000b8fb0700e9
:1071200000407800dd1b0700400798004e009000eb
:107130006b1c0700800478003e009000b0fb070045
:10714000000478001e007800adfb07000005780001
:107150001e009000aafb0700000545002e009000cd
:10716000a7fb0700000045008901780008017800ae
:107170008000780000102000d20c07004e00900024
:10718000571c0700000478003e0090009cfb07009d
:107190000040780033c0b3000801780080407800d8
:1071a0002e4892007e0007004e0090008d1c0700c4
:1071b0004f0578004f04be000080fa000000060072
:1071c0000600fa00204798003147980022079800ef
:1071d0002e00900010407800004f78002e009000a4
:1071e0000000e80010407800104798001e0078006a
:1071f000cf80de0091f9070002002000832c2400dc
:10720000fff8070070478800814788002e00900033
:107210000080e80010407800004f78002e009000b9
:107220006300400010407800104798001e0078006e
:10723000cf80de0081f9070002002000832c2400ab
:10724000eff8070090478800a14788001000200051
:1072500060478800501680004b00de0061406000ef
:1072600000c0ea00614060000080fb006100600037
:107270004b00dd0052168000f17f2f00810061007d
:1072800000807000501688000080fa0000000600a0
:107290000600fa002047980031479800220798001e
:1072a0002e00900010407800004f78002e009000d3
:1072b0000000e8001040780010479800cbc2a900f9
:1072c0001e007800180d0700cbc2a8000080fa004d
:1072d000000006000400fa00004f780011479800f3
:1072e000120798009ac8bf009e009000804878005e
:1072f0001e0090008000e8009bc8bf008048780016
:1073000093c0b3001e01900021c0b3001e4078005e
:10731000230007000080fa00000006000400fa00c5
:10732000004f780011479800120798001e00900047
:1073300010407800e04f500005003a000000eb00dc
:10734000f04488000040eb00751c07000400370083
:1073500010c0b300721c070010002000f044880029
:107360000080fa00000006000400fa00004f7800d8
:1073700011479800120798000000fe000080fa00f4
:10738000000006000400fa00004f78001147980042
:1073900012079800000000000080fa0000000600bc
:1073a0000a00fa00404798005147980032079800b9
:1073b000034f98005e4090000080fb008b070700a1
:1073c000000f78001e007800e00f50001600320019
:1073d0008000eb001e007800e11007001110200073
:1073e0001e007800d61007001e0078002411070048
:1073f000100798003e019000de4090001e009000b3
:10740000be1b07008e4890001e009000d31b070093
:107410001e00780038070700e00f5000030032001c
:107420009807070001003700000000000080fa0004
:10743000000006003600f800809fbe00829fbe005c
:10744000849fbe00869fbe00889fbe008a9fbe00ac
:107450002e00fa000f0578000f00780080057800f4
:107460000040eb00004f980030c2b300104f98006e
:107470001e4890008080fb008100e90051079800c1
:107480000080fb000000e8000000e8000000d100e0
:10749000800040000f007800818747000000e8006e
:1074a0000000d10000004000600798000147800004
:1074b000e2c8bf000080fb000000400000804000e8
:1074c0009000780011079800032107000001be001a
:1074d0002047800031478000000051008180590022
:1074e000500f9800610f9800091c0700e04f5000f2
:1074f0000d003200191c07001d1c0700f11b0700be
:10750000700f980001179800e21b070010179800f1
:1075100021179800e51b07003017980041179800c5
:107520001a190700000f78004119800000fe2f0093
:10753000008060000000a000401988002023a800ff
:10754000000000000019800061006000e00f5000a2
:10755000fcff32002023a9002003a90000188000ae
:10756000501798004119800000fe2f000080600035
:10757000401988002023a8000000000000198000a6
:1075800061006000e00f5000fcff32002023a900e2
:107590002003a900001880006017980040168000a2
:1075a0004700de0061406000004f9800b7003700e0
:1075b0001e00900040409000f44f50001c003a0024
:1075c0001e009000300090000000e800104078009d
:1075d000e04f500008003200eac8bf00e04f500002
:1075e00005003a00cb02a800cb62a80010c0b3008f
:1075f000eae8b700570037001e0090003000900006
:107600000000e80010407800e04f50004a003a00c7
:10761000eac8bf00e14f500049003a00cb02a90080
:10762000cb62a9000040eb00eae8b7004900370050
:107630001e00900040409000f54f500045003a0079
:107640001e0090003000900010407800e14f500084
:107650001a003a001e009000300090000000e80080
:1076600010407800e04f500007003200e8c8bf002b
:10767000e04f500004003a00cb02a90010c0b30054
:10768000e8e8b700330037001e009000300090009b
:107690000000e80010407800e04f50002a003a0057
:1076a000e8c8bf00e14f500029003a00cb02a80013
:1076b0000040eb00e8e8b700260037001e0090000d
:1076c0003000900010407800e04f500021003a0058
:1076d0001e009000300090000000e800104078008c
:1076e000e04f500007003200e9c8bf00e04f5000f3
:1076f00004003a00cb62a90010c0b300e9e8b7006b
:10770000140037001e009000300090000000e800d8
:1077100010407800e04f50000e003a00e9c8bf006a
:10772000e14f50000b003a00cb62a8000040eb0094
:10773000e9e8b70007003700000000000500370047
:1077400000000000030037000000000001003700c7
:107750000000000060478000e10f500009003a007f
:107760000000eb0060478800c28820006000b8007d
:107770000089be00c28820006000b8002001980087
:10778000310198001e009000404090000080fb00f6
:1077900080004000008a20000080400090017800b6
:1077a0001e009000300090000001780021c0b3005e
:1077b0000040eb0003000100e2c8bf000040e80009
:1077c000e2e8b700218e20009140780099c8bf0000
:1077d00080cf500026003a000040eb00501b07000d
:1077e000cb02a900cb62a9006011b80030c0b30081
:1077f0002f1e0700c28820006000b8000089be006c
:10780000c28820006000b800200198003101980073
:107810006011b80010c0b300251e07000000eb0087
:107820003007980009003700014780003e009000b3
:10783000000040000080400010007800cb1f0700cf
:107840003e0090000000e8003007980099c8bf0093
:107850008080fb003e009000808f5000f2ff3c00d3
:107860000047800086f907009460a9000e003700e9
:1078700001478000e2c8bf000080fb00000040001c
:107880000080400010017800120798001e00900050
:107890001001be005e089000ee089000800f5100bd
:1078a000818f590042ff390060478000e00f50008f
:1078b0004a0032005e099000ee0990000147800006
:1078c000e2c8bf000080fb000000e90000004000ab
:1078d00000804000100078001000be000000510041
:1078e00081805900d8f7070070079800010f9800b1
:1078f00001478000e2c8bf000080fb00000040009c
:1079000000804000100078001001be000147800098
:10791000e2c8bf000080fb000000e900000040005a
:1079200000804000100078001000be0000005100f0
:1079300081805900c4f707000001be007e0090005e
:107940008e0890002ef70700100f9800210f980066
:1079500090478000a14780001e099000ae0990006a
:107960000ef807000004be001e099000ae0990004a
:107970000000200001f82300c3f607000002be004b
:1079800070478000814780000001be000400be00f7
:1079900002f807000001be000800be00bbf60700a9
:1079a000300f9800410f9800c08820003e099000d9
:1079b000ce0990002200980033009800c088200073
:1079c0003e099000ce0990000288be003e0990005a
:1079d000ce09900010c0b300b51d070098c8bf00c5
:1079e000e14f50008f003a000000eb0020079800a4
:1079f00025003700fa0047002e009000008040006c
:107a0000104078006e019000ae00900081004100af
:107a1000804878002e009000e40040007e0147007e
:107a20002e00900000004100104078006e01900090
:107a300000f178002e009000e800400022022000b3
:107a40000e0141002e00900000004100104078001f
:107a50006e01900000f178002e009000ec004000d4
:107a6000620220000e0141002e0090000000410043
:107a7000104078006e01900000f178002e00900018
:107a80000000e800200798002e009000e30f50004f
:107a9000d8ff34001e00780010407800ee009000ff
:107aa000805098001e00e80010407800ee00900022
:107ab000905098001e80e80010407800ee00900082
:107ac000a05098009e01780063804100104078002b
:107ad000ee009000b05098009e0078006480400056
:107ae00010407800ee009000c05098001e01780011
:107af0006500410010407800ee009000d0509800e2
:107b00002e689000ee009000e05098003e689000d3
:107b1000ee009000f0509800ee0090000040eb0066
:107b200080589800ee0090000040eb0090589800bc
:107b30006e0090008e499000235898004e68900087
:107b4000ee009000b05898005e689000ee00900043
:107b5000c05898006e0090007d004000821207001f
:107b6000dac9bf00524480009e4890008180fb002b
:107b70006e0290008041780004007800070a070038
:107b8000514480001e4890000080fb0000804000af
:107b900050448800d04480000000e800d0448800b1
:107ba000514480001e4890000080fb00808040000f
:107bb00080102000808f50001a0036005016800080
:107bc0004800de006140600000c0ea0061406000e3
:107bd0000080fb00610060004800dd00521680005c
:107be000f1ef2f00810061000080700050168800c6
:107bf000dac9bf0041448000010178008100e8003b
:107c0000414488008040780002007800050a07009f
:107c10000000eb0050448800dac9bf000004a20055
:107c2000dae9b7008460a9008b0778008a0778003a
:107c30000080fa004f05be004f04be004f03be0097
:107c40004f02be004f01be004f00be003600f900db
:107c5000004006002000fa00889fbe000f04780054
:107c60000f007800800478000040eb004047980047
:107c70000000eb00000f780030c2b30050479800be
:107c80005e4090008080fb008100e9003107980091
:107c90000080fb000000e8000000e8000000d100c8
:107ca000800040000f007800818747000000e80056
:107cb0000000d1000000400040079800141a07009f
:107cc000e04f50000d003200241a0700281a070068
:107cd000fc190700000f9800110f9800ed1907001c
:107ce000200f9800310f9800f0190700400f9800fe
:107cf000510f9800251707001007980041198000c0
:107d000000fe2f00008060000000a00040198800e5
:107d10002023a8000000000000198000610060001e
:107d2000e00f5000fcff32002023a9002003a9002f
:107d300000188000600f98004119800000fe2f009d
:107d400000806000401988002023a8000000000087
:107d50000019800061006000e00f5000fcff32005d
:107d60002023a9002003a90000188000700f9800ac
:107d7000401680004700de006140600040479800e8
:107d8000501680004800de006140600000c0ea003c
:107d9000614060000080fb00610060004800dd0081
:107da00052168000f1ef2f0081006100008070000a
:107db000501688000000eb00000f78001c00370010
:107dc0006c0047001e00400010407800ce0090007c
:107dd0009e804000804878001e007800e40040004b
:107de000700047001e004000104078004e019000d7
:107df00000f178001e007800e800400074004700a1
:107e00001e004000104078004e01900000f1780004
:107e10001e007800ec004000780047001e00400083
:107e2000104078004e01900000f178001e0fe8002d
:107e30001e007800e30f5000e1ff36001e009000a6
:107e400010407800ce009000805098001e009000f6
:107e50000000e80010407800ce009000905098009c
:107e60001e0090000080e80010407800ce009000d6
:107e7000a05098001e009000630040001040780061
:107e8000ce009000b05098001e00900064004000aa
:107e900010407800ce009000c05098001e00900066
:107ea0006500400010407800ce009000d05098004f
:107eb0004e589000ce009000e05098005e58900020
:107ec000ce009000f0509800ce0090000040eb00f3
:107ed00080589800ce0090000040eb009058980029
:107ee0004e009000ce409000215898006e589000af
:107ef000ce009000b05898007e589000ce009000c0
:107f0000c05898004e0090007d0040009611070078
:107f10001000200050079800ce0090005e009000f6
:107f20000040780083c1b30001017800de4090007a
:107f30001bfd070089077800880778004f04be0002
:107f40000080fa00000006000000fa00cb62a800e2
:107f5000c08820001000be000001be0010c0b300a9
:107f6000531c07000080fa00000006000000fa0021
:107f7000cb62a900c0882000b000900020009000d3
:107f80000001be0010c0b300491c07000080fa00c9
:107f9000000006003600f800809fbe00829fbe00f1
:107fa000849fbe00869fbe000200fa00f04480005d
:107fb000e00f50000c003200e04480000000e800b8
:107fc000e0448800e14480002003200000017800a4
:107fd000110009008200d8008000fd00e00f500071
:107fe00001003a001bff0700401680004700de003a
:107ff000614060000080fb00000f7800b047800007
:10800000e00f5000050032001e007800e00f500025
:1080100002003a00d5ff070007003700b047800094
:10802000e00f500004003a001e007800e00f5000fe
:1080300001003200c4ff07001e007800b04788002e
:1080400084e0a9000080fa004f03be004f02be008a
:108050004f01be004f00be003600f9000040060090
:108060000000fa0026030700af1307000063240096
:10807000b9130700f0c0b30057020700070207005a
:1080800083c0b3000041eb0080c0eb00e0c0b30050
:108090005e0207008041eb000041eb0011c0b3001d
:1080a000c0c2b3005902070013c0b30052c0b300ee
:1080b00001c2b30040c0b300540207008041eb008e
:1080c0000041eb0071c0b30030c0b3004f020700a5
:1080d00013c0b30012c0b30021c0b30040c0b3004e
:1080e0004a02070043c0b30012c0b300e1c0b300ae
:1080f000c0c2b300450207008041eb0042c0b3009c
:1081000001cfb300c0c2b300400207008041eb00c2
:1081100072c0b30001c8b300c0c0b3003b02070087
:1081200033c0b30062c0b30001ccb300e0c2b300ff
:108130003602070023c0b30022c0b300c1c0b300a1
:1081400040c0b3003102070091010700d0fe2f00ac
:10815000fbf007000040eb0086e8b70010c0b3005a
:1081600000e8b7000080fa00000006000200fa00f4
:10817000a513070083c0b3000041eb00f1c1b300b9
:1081800020c0b300210207000000eb00000f7800c0
:10819000070037000041eb00f1c1b30010c0b3008d
:1081a00039020700e84f5000050032001e0fe800ba
:1081b0001e007800f10f4000f6ff36000100370086
:1081c0000000000080002000204088000080fa00ad
:1081d000000006000000fa0013c0b30072c0b30034
:1081e00001c8b30080c1b30008020700000000000e
:1081f00072c0b30001c8b30080c1b30022020700ff
:10820000e04f5000faff3a000080fa00000006003c
:108210000200fa00000f78001e007800004078008d
:108220008040780000c2b300df0107001e00780024
:108230004800de00004078008040780010c2b300a3
:10824000d90107000080fa00000006000200fa00d1
:10825000000f78001e007800004078008040780011
:1082600020c2b300d00107001e0078004800de00e5
:10827000004078008040780030c2b300ca01070097
:108280000080fa00000006000200fa00004f7800ab
:108290009e4178000041eb00f1c1b30080c0b30003
:1082a000da0107000080fa00000006000200fa0070
:1082b000000f78001e0078000040780080417800b0
:1082c00042c0b30001cfb300c0c2b300cf0107006a
:1082d0000080fa00000006000200fa00000f78009b
:1082e0001e007800104088000080fa0000000600a0
:1082f0000200fa00881f7800000f7800c0c1b300a8
:10830000b50107009e007800804878001e04e80050
:10831000d0c1b300b0010700004c78001e84e80013
:10832000f0c1b300ac010700004c78001e007800db
:1083300063044000e0c1b300a7010700004c7800cf
:108340004f0478000080fa00000006000000fa00e8
:1083500086c8bf007f4060000080fa000000060071
:108360000000fa0070c0b3009b0107000080fa0013
:10837000000006000000fa0087c8bf000080fa0075
:10838000000006000800fa00881f780030079800f7
:108390000000eb00000f78003e0090006048900065
:1083a0006b40400020479800608020001e00400085
:1083b000ae409000014878001e0fe8003e0090009b
:1083c00010407800618020009e8040008048780046
:1083d0001e0fe8003e0090001040900061802000d9
:1083e0009e804000804878001e0fe8003e0090000c
:1083f00020409000618020009e80400080487800ee
:108400001e0fe8003e009000404090006180200078
:108410009e804000804878001e0fe8003e009000db
:1084200050409000618020009e804000804878008d
:108430001e0fe8003e009000604090006180200028
:108440009e804000804878001e0fe8003e009000ab
:1084500070409000618020009e804000804878003d
:108460001e0fe8003e009000204890006180200030
:108470009e804000804878001e0fe8003e0090007b
:1084800030489000618020009e8040008048780045
:108490001e0fe8003e009000f90c0700200798002e
:1084a0002e009000e00f5000180032002e009000c7
:1084b0009d1707000084fb002e0090005c1707004a
:1084c00080007800608020001e00400008017800d5
:1084d000bdf60700ac12070000c6b300dc120700af
:1084e0002e4090000080fb006300b900000078007f
:1084f000800078002e4090000080fb000101780091
:1085000061802000221307000100370000000000f6
:108510004f0478000080fa00000006000200fa0014
:10852000000f78009e00780060802000460d070054
:108530000080fa00000006000000fa0060802000c1
:10854000dc0c07000080fa00000006000000fa00c2
:1085500010c0b300040207000040eb000202070055
:1085600020012000204088000040eb0087e8b70091
:108570000080fa00000006000800fa0010028000e7
:108580004500de0067406000004f780090028000e8
:1085900010079800ff3ffc0011028000000e200031
:1085a00000807000100288001e0090009002880079
:1085b0000000880020408000f90f500011003a00b0
:1085c0009002800020079800ff3ffc001e407800ca
:1085d000674060000080fb00670060004500dd0030
:1085e00012028000f1f12f00810061000080700014
:1085f000100288002e009000900288000000880081
:108600001e00370093c1b3000041eb00f1c1b3007d
:1086100020c0b300fd000700000000000041eb0097
:10862000f1c1b30010c0b30017010700f94f5000ab
:10863000faff3a009001200020408800900280005c
:1086400030079800ff3ffc001e4078006740600044
:108650000080fb00670060004500dd001202800022
:10866000f1f12f008100610000807000100288008d
:108670003e00900090028800000088000080fa0010
:10868000000006000800fa00100280004500de002d
:1086900067406000004f780090028000100798004b
:1086a000ff3ffc0011028000000e200000807000df
:1086b000100288001e0090009002880000008800d0
:1086c00020408000f60f500011003a009002800018
:1086d00020079800ff3ffc001e40780067406000c4
:1086e0000080fb00670060004500dd001202800092
:1086f000f1f12f00810061000080700010028800fd
:108700002e00900090028800000088001e003700b4
:1087100063c1b3000041eb00f1c1b30020c0b3005e
:10872000ba000700000000000041eb00f1c1b300f7
:1087300010c0b300d4000700f64f5000faff3a0013
:1087400060012000204088009002800030079800df
:10875000ff3ffc001e407800674060000080fb0087
:10876000670060004500dd0012028000f1f12f007b
:108770008100610000807000100288003e009000bf
:1087800090028800000088000080fa0000000600c7
:108790000800fa00100280004500de00674060001b
:1087a000004f78009002800010079800ff3ffc0007
:1087b00011028000000e200000807000100288006e
:1087c0001e00900090028800000088002040800079
:1087d000e90f500011003a00900280002007980035
:1087e000ff3ffc001e407800674060000080fb00f7
:1087f000670060004500dd0012028000f1f12f00eb
:108800008100610000807000100288002e0090003e
:1088100090028800000088001e00370093c0b3005b
:108820000041eb00f1c1b30020c0b30077000700a6
:10883000000000000041eb00f1c1b30010c0b30024
:1088400091000700e94f5000faff3a009000200025
:10885000204088009002800030079800ff3ffc0015
:108860001e407800674060000080fb0067006000e9
:108870004500dd0012028000f1f12f00810061004f
:1088800000807000100288003e0090009002880076
:10889000000088000080fa00000006000800fa00ce
:1088a000100280004500de0067406000004f780045
:1088b0009002800010079800ff3ffc00110280002a
:1088c000000e200000807000100288001e00900042
:1088d000900288000000880020408000e80f5000cf
:1088e00011003a009002800020079800ff3ffc0032
:1088f0001e407800674060000080fb006700600059
:108900004500dd0012028000f1f12f0081006100be
:1089100000807000100288002e00900090028800f5
:10892000000088001e00370083c0b3000041eb0048
:10893000f1c1b30020c0b300340007000000000004
:108940000041eb00f1c1b30010c0b3004e000700be
:10895000e84f5000faff3a008000200020408800d5
:108960009002800030079800ff3ffc001e40780016
:10897000674060000080fb00670060004500dd008c
:1089800012028000f1f12f00810061000080700070
:10899000100288003e0090009002880000008800cd
:1089a0000080fa00000006000200fa00004f780084
:1089b000114798007411070000ccb3001e407000ee
:1089c000a31107001e409000a111070082110700ab
:1089d0000080fa00000006000400fa00204798001a
:1089e00069110700ae40900000c8b30000c07000dd
:1089f00097110700c0110700004f7800761107009b
:108a00001e4078000080fa00000006000600fa0010
:108a100020479800314798004247980053479800f4
:108a20002e409000ecff0700004f78003e40900081
:108a300080c0ea001e40780000c06000004f78004f
:108a40005e4090008080fb004e4090000080fb0064
:108a50000008dd0050479800de4090003e40900046
:108a600000c06000504798005e4090001e407000bb
:108a700050479800de4090002e409000caff07004b
:108a80000080fa00000006000600fa002047980067
:108a900031479800424798002e409000ceff0700d3
:108aa000004f78003e4090001e4f60001e4078004e
:108ab0008080fb004e4090000080fb000088de00bc
:108ac000004f78001e4078000080fa000000060089
:108ad0003600f800809fbe00829fbe00849fbe00cb
:108ae000869fbe000200fa000040eb00004f7800b5
:108af00000c0eb0010479800f0c0b300b6ff0700bd
:108b0000004f78009e4078000180fb006800600004
:108b1000e00f50004a00320052c0b30001ceb30053
:108b200020c0b300d8ff0700104798002040800005
:108b3000f20f500029003a009001200020408800e8
:108b40001e409000e04f500006003a0010c0b300f5
:108b500087e8b700114080000000eb000100010031
:108b6000370037001e409000e14f500004003a00eb
:108b7000114080000000eb000100010030003700d0
:108b80001e409000e34f500004003a001140800066
:108b90001000200001000100290037001e40900055
:108ba000e54f500006003a000040eb0087e8b700b0
:108bb000114080001000200001000100200037005b
:108bc0001e409000e74f50001d003a001140800009
:108bd0001000200001000100190037002040800033
:108be000f60f500016003a001e409000e04f500073
:108bf00005003a00310007001140800020002000ed
:108c0000010001000e0037001e409000e24f5000ae
:108c100005003a00290007001140800020002000d4
:108c200001000100060037001e409000e74f500091
:108c300003003a00114080004000200001000100c4
:108c40008ac0a9000080fa004f03be004f02be0098
:108c50004f01be004f00be003600f9000040060084
:108c60000200fa00000f78001e007800e00f5000ac
:108c700009003a00d810070020408000f60f50008d
:108c80000c003a001800070011408000300020005e
:108c900001000100070037001e007800e10f5000be
:108ca00004003a00d8100700114080005000200056
:108cb000010001000080fa00000006000000fa0038
:108cc000b110070000c2b300e110070086e8b7004a
:108cd000021820008000eb00000820002c11070083
:108ce0000080fa00000006000000fa006180200009
:108cf00000082000661107000080fa00000006004e
:108d00000000fa008540a9009540a90042a2a800f1
:108d10004382a9004362a9004342a9004322a9005b
:108d200042e2a9004302a80042c2a9001112800039
:108d300030fe2f00008060000030a000101288007c
:108d4000101280003000b300101288000000eb0009
:108d50002012880041a2a90040c2a90041e2a80057
:108d60000080fa00000006000200fa00004f7800c0
:108d70009e40780061c060000080fb004f00dd0075
:108d800052168000f1ff2700810061000080700012
:108d90005016880000000000000000000080fa006b
:108da000000006001200fa0070079800010f9800fa
:108db00061130700aafc070040a4240046fd070039
:108dc0007e00900093070700d04888000e089000ae
:108dd00090070700e048880020002000d047880066
:108de0000000eb00e04788000000eb00f04788003f
:108df0000040eb0000e9b7000040eb0001e9b700dc
:108e00000040eb0002e9b7000040eb0003e9b700c7
:108e10006000b80020488800314888006000b80031
:108e2000404888005148880010102100000f780049
:108e3000100021001007980050c1b300404798006f
:108e400020c0b3006047980030c0b300704798005e
:108e50000040eb00004f980000a8210061002000b6
:108e600050079800610798000e0078000500070081
:108e700010c0b300f8e8b700df0107000080fa0077
:108e8000000006000200fa00000f78001e007800c3
:108e9000e00f500019003200e20020009e00780030
:108ea000c090200048f407001e0078003000070042
:108eb0001e00780060409000570007001e007800f8
:108ec000704090005a0007001e0078000048900093
:108ed000e04f500002003200690007000100370037
:108ee0006d0007001e007800e00090005000900028
:108ef000000078006d00070001003700000000004e
:108f00000080fa00000006000200fa00000f78005e
:108f10001e007800e00f500005003200e200200043
:108f2000c19020001e00780027f4070001003700e0
:108f3000000000000080fa00000006000200fa00b5
:108f4000000f78001e007800e00f5000050032008e
:108f500022012000a18f20001e0078001af40700d3
:108f600001003700000000000080fa000000060049
:108f70000200fa00000f78001e007800e00f500099
:108f80000a0032001e007800100078000a00070076
:108f90001e007800100090000f0007001e007800ef
:108fa000404090001400070001003700000000005e
:108fb0000080fa00000006000200fa00000f7800ae
:108fc0001e007800604888001e00780090fc0700b2
:108fd0000080fa00000006000200fa00000f78008e
:108fe0001e007800704888001e00780097fc07007b
:108ff0000080fa00000006000200fa00004f78002e
:109000001e40780010e9b7001e4078009efc070063
:109010000080fa00000006000200fa00004f78000d
:109020001e40780012e9b7000080fa000000060038
:109030000200fa00004f78009e4078000180fb009b
:109040009afc07000080fa00000006000200fa0007
:10905000004f78001e407800e04f500002003a00b8
:109060000d000700040037001e407800e14f50005b
:1090700001003a00020007000080fa00000006002c
:109080000000fa0010c0b30014e9b70003020700a3
:109090000080fa00000006000000fa000040eb002b
:1090a00014e9b7000080fa00000006000200fa0090
:1090b000000f78001e00780001002000b0488800f2
:1090c000c1488800f50107000080fa000000060092
:1090d0000000fa00f8c8bf00e04f500002003a005c
:1090e0000000eb0002003700e0488000ae070700f8
:1090f0000080fa00000006000200fa00000f78006d
:10910000f8c8bf00e04f500002003a000000eb003a
:1091100003003700d04880009e007800f406070066
:109120000080fa00000006000000fa00d04880002d
:10913000d50807000080fa00000006000000fa00d1
:10914000d0488000da0807000080fa00000006001e
:109150000000fa00d0488000e10807000080fa0013
:10916000000006000000fa00e0488000c608070082
:109170000080fa00000006000000fa00e0488000cd
:10918000cb0807000080fa00000006000000fa008b
:10919000e0488000d20807000080fa0000000600c6
:1091a0000000fa0003003700d04880007e07070067
:1091b0002a000700d0488000b3080700e00f5000e5
:1091c000f9ff320003003700e0488000760707000f
:1091d00022000700e0488000ab080700e00f5000c5
:1091e000f9ff32000080fa00000006000400fa00d7
:1091f000100798001e009000ed120700000f780085
:109200001e007800e00f500002003a000000eb0062
:109210000b00370061488000704880000101780031
:10922000800078001e007800550907007048800013
:10923000800078001e007800490907001e007800b1
:109240000080fa00000006000200fa00000f78001b
:109250000000eb000080fa00000006000200fa00a7
:10926000000f78001e007800151307000080fa0038
:10927000000006000200fa00000f78000080fa00eb
:10928000000006000400fa009b190700008fbe00d2
:1092900014c9bf00e04f50000b003200404880006e
:1092a000514880003e011000ae811800b048800097
:1092b000c1488000800f5100818f590002003600a4
:1092c0005b0007001100370097ff0700e00f500018
:1092d00006003a00b5000700e00f50000800320019
:1092e0006e0107003501070008003700c2000700c3
:1092f000e00f50000400320068010700030037004f
:109300000000000001003700000000000080fa00ab
:10931000000006000e00fa00200798006147980040
:10932000724798004307980054079800454f9800eb
:109330004e009000adff0700000f78001e0078007f
:10934000e00f500002003a0010c0b30024003700c4
:10935000ae0090001e007800f90807001e0078009b
:1093600047090700100798004e0090000040780061
:109370005e019000804078001e009000df1307001f
:10938000fe4090001e009000f4130700ee40900095
:109390001e009000031407004e489000e04f50005c
:1093a000090032001e00780053ff0700e00f500054
:1093b0000a003a001e007800a8ff070007003700e7
:1093c000b0ff070001003700000000001e00780019
:1093d00049ff0700e00f5000f9ff32000040eb00aa
:1093e0000080fa00000006003600f800809fbe00f2
:1093f000829fbe00849fbe00869fbe000000fa00d0
:109400009500a9000000eb00dfec07000800070052
:109410008500a9000080fa004f03be004f02be0085
:109420004f01be004f00be003600f90000400600ac
:109430000000fa004dfb070010002000d047880014
:109440008000070015010700cbc2a900501680005c
:109450004c00de006140600000c0ea006140600036
:109460000080fb00610060004c00dd0052168000af
:10947000f1ff2e008100610000807000501688000e
:109480000080fa00000006000200fa00000f7800d9
:10949000d0478000e00f50003e003200d0478000ef
:1094a000e20f50003b003200d0478000e40f500034
:1094b00007003a001e007800e20f500035003a0025
:1094c000cbc2a80050002000d047880031003700f0
:1094d000d0478000e50f50000c003a001e007800d5
:1094e000e30f50002b003a00cb00070097fb07006a
:1094f00002e9b7009afb070003e9b700cbc2a90055
:1095000040002000d047880022003700d04780006c
:10951000e60f50001f003200d0478000e70f5000d8
:109520001c003a0060002000d0478800cbc2a90090
:109530001e007800e00f500005003a00d04880007f
:10954000f406070045ff07002b0007001100370055
:109550001e007800e10f50000e003a0001c9bf0064
:109560000040e80001e9b700119020009140780028
:1095700012c9bf0080cf5000060036000040eb004b
:1095800001e9b700d0488000e206070033ff07007a
:10959000190007001e007800e50f500001003a0096
:1095a000f2fa07000080fa00000006000200fa004c
:1095b000d0478000e60f500002003a001000200063
:1095c0000b00370045000700000f78001e007800f0
:1095d000e00f500002003a000000eb0004003700ea
:1095e000e5fb070060002000d04788001000200045
:1095f0000080fa00000006000200fa00d047800058
:10960000e40f500002003a00100020000b00370069
:1096100032000700000f78001e007800e00f5000b5
:1096200002003a000000eb000400370015fc0700c0
:1096300040002000d0478800100020000080fa0081
:10964000000006000200fa00d0478000e20f500040
:1096500002003a00100020000b0037001f00070036
:10966000000f78001e007800e00f500002003a0062
:109670000000eb000400370045fc0700200020003c
:10968000d0478800100020000080fa00000006008b
:109690000200fa00d0478000e10f500002003a00bb
:1096a000100020000b0037000c000700000f7800ae
:1096b0001e007800e00f500002003a000000eb00ae
