:020000040000fa
:080000000010040000000000e4
:020000040000fa
:10000800e21a0000e21a0000e21a0000e21a0000f8
:10001800e21a0000e21a0000e21a0000e21a0000e8
:10002800e21a0000e21a0000e21a0000e21a0000d8
:10003800e21a0000e21a0000e21a0000e21a0000c8
:020000040000fa
:020000040000fa
:102000006f8920000e7f24000e0188000000000070
:102010000c000700a0ad2100010020001100070006
:10202000000020000000e00002003200000002007a
:102030000000000094190200000000000040da00d7
:102040000000fe004440a900200120000000e00044
:102050000300320000002000a00188004440a800d6
:102060000000060091018800800078000000eb006d
:1020700015003700e280400032a0b4009101ba00a0
:10208000e280400032a0b4009102ba00e280400039
:1020900032a0b4000002eb00472bde00f507b200cf
:1020a000602ce10004003a000059eb008301e900d4
:1020b000fdff3e00040037006128e100010032000e
:1020c0000082eb00040007001101ba000200e000ea
:1020d000e8ff3a00000006003159ba008301e90028
:1020e0000c0032002159ba008301e90008003200d7
:1020f0000400e00003003a00e280400032a0b40097
:10210000f5ff370011d9ba008301e900faff3a0060
:102110008100e800e180400032a0b4000000060029
:020000040000fa
:10212000486500006c6c00006f200000776f0000b5
:10213000726c000064000000322e0000312e00009e
:04214000300000006b
:020000040000fa
:102144000000fa00b301070000802000eb00070044
:102154000080fa00000006000200fa00881f7800e0
:10216400000f7800ca42a800c0c1b30039010700bb
:102174009e007800804878001e04e800d0c1b300b7
:1021840034010700004c78001e84e800f0c1b3005d
:1021940030010700004c78001e0078006304400002
:1021a400e0c1b3002b010700004c78004f04780015
:1021b4000080fa00000006000000fa000041eb0075
:1021c400f1c1b30010c0b3003b0107000080fa0066
:1021d400000006000200fa00000f78009140800021
:1021e400a0408000808f50000a003a0014000700cd
:1021f400e04f500002003a000040eb000e003700b0
:10220400608120001e000700904088000000eb0061
:10221400a0408800a1408000608120000080400030
:10222400104078001e017800004978000100e800a1
:10223400a040880010c0b3000080fa00000006002f
:102244000000fa00f0c0b30002010700e84f50009c
:1022540008003a0072c0b30001c8b30060c0b30004
:1022640015010700e04f50000200320010c0b30017
:10227400010037000040eb000080fa000000060077
:102284001600fa00881f7800200f9800ca42a9009f
:1022940000c2b3004b010700380107006b40500037
:1022a40010479800350107004047980033010700a4
:1022b4005047980031010700604798002f0107003c
:1022c400004f98002d010700104f98002b010700c4
:1022d400204f980029010700304f9800ae0090006d
:1022e4000004200000806000e00f500004003a0069
:1022f40022010700404f980020010700504f98002a
:102304001e010700604f98001c010700704f9800e1
:102314001a01070020479800180107003047980069
:102324000040eb00004f7800070037009e40780023
:102334000180fb00ae089000008440000f010700fc
:10234400004c78001e4fe8001e4078008080fb009f
:102354001e4090000080fb000080e900808f500048
:10236400f2ff350005010700ca42a8001e40900094
:102374000080fb000080e9004f0478000080fa0030
:10238400000006000a00fa00404798003107980050
:10239400024f9800134f980001003700000000001e
:1023a4000041eb00f1c1b30010c0b300c20007004c
:1023b400104798001e409000f94f50000a00320068
:1023c4001e409000f64f5000f4ff3a0091c0b30055
:1023d40020c0b300ac00070091c1b30020c0b3001b
:1023e400a9000700010037000000000020c0b3006e
:1023f4002047980010c0b300870007000040eb009e
:1024040085000700ca42a90000c6b300ed0007001a
:10241400ce4090002e40900000c040006b40400031
:10242400e800070000c8bf00e600070001c8bf00bd
:10243400e400070010c8bf00804078000040e800b6
:1024440010e8b70001407800de00070004c8bf00b0
:10245400dc00070005c8bf00da00070006c8bf009b
:10246400d800070007c8bf00d60007000ac8bf008d
:10247400d40007000bc8bf00d20007000e4890002c
:10248400d00007001e489000ce0007000040eb007b
:10249400004f7800070037009e4078000180fb0061
:1024a400be0090000080400010407800c500070086
:1024b4001e4fe8004e4090009e40780080cf5000b0
:1024c400f5ff3900ca42a80000000000f0c0b300c4
:1024d40060000700e84f5000fcff3a0091c0b300d1
:1024e40020c0b3006800070061c1b30020c0b3007e
:1024f400650007000080fa00000006000200fa00f0
:10250400000f78001e0078001001780081ff2f0072
:10251400810061000100a000010878001e0078001d
:102524001001780071ff2f0081006100010878001c
:102534001e00780010017800f1fe2f008100610078
:10254400010878001e0078001001780001022000c4
:1025540081007100010878001e00780010017800e5
:102564000104200081007100010878001e00780039
:1025740010017800f1c72f00810061000108780084
:102584001e00780010017800f13f2f000101610066
:102594000180200081007100010878001e0078008d
:1025a40010017800f1ff2c000101610001002100fd
:1025b40081007100010878001e0078001001780085
:1025c400f1ff230001016100010028008100710076
:1025d400010878009e0078000040eb00a0409800bd
:1025e4001e0078008000eb00210098001e00780097
:1025f4008000eb00410098001e00780011102000bc
:10260400310098001e00780001112000510098004c
:102614000080fa00000006000200fa00004f780073
:102624001e407800614060000080fb004f00dd0028
:1026340052168000f1ff27008100610000807000c5
:102644005016880000000000000000000080fa001e
:10265400000006000400fa0020479800ca42a900be
:10266400ae40900000c8b30000c0700055000700e1
:1026740042000700004f7800ca42a8001e407800bc
:102684000080fa00000006000200fa00004f780003
:1026940011479800ca42a90000ccb3001e40700044
:1026a400480007001e40900046000700ca42a800e8
:1026b4000080fa00000006000600fa002047980097
:1026c40031479800424798002e409000e1ff0700f0
:1026d400004f78003e4090001e4f60001e4078007e
:1026e4008080fb004e4090000080fb000088de00ec
:1026f400004f78001e4078000080fa0000000600b9
:102704000600fa0020479800314798004247980095
:10271400534798002e409000ceff0700004f7800ea
:102724003e40900080c0ea001e40780000c0600077
:10273400004f78005e4090008080fb004e40900087
:102744000080fb000008dd0050479800de40900048
:102754003e40900000c06000504798005e409000ea
:102764001e40700050479800de4090002e409000bc
:10277400c5ff07000080fa00000006000000fa0010
:1027840040c2a9000000eb004012880000000000d5
:102794000012800062006000e00f5000fcff3a006d
:1027a400000000000012800061006000e00f500093
:1027b400fcff320040128000004078000080fa00e4
:1027c400000006000400fa00204798002e40900004
:1027d4000080fb004012880000000000001280000e
:1027e40062006000e00f5000fcff3a0000000000af
:1027f4000012800061006000e00f5000fcff320016
:1028040040128000004f78001e4078000080fa00db
:10281400000006000000fa0033000700ca42a800c6
:1028240031c0b30020c0b30097ff070081c0b300dc
:10283400e0c0b30094ff070013c0b30052c0b3005c
:1028440001c2b30040c0b300adff07008041eb00fc
:102854000041eb0071c0b30030c0b300a8ff070013
:1028640043c1b3000041eb00f1c1b30080c0b30029
:10287400a3ff0700f0c0b30076ff070001c1b30057
:1028840000c2b30080ff070011c0b30010c2b30040
:102894007dff07008040eb0020c2b3007aff0700f1
:1028a4008040eb0030c2b30077ff070023c0b300c1
:1028b40042c0b30001cfb300c0c2b30090ff070011
:1028c40023c0b30012c0b300e1c0b300c0c2b30060
:1028d4008bff070061c1b30020c0b3006aff07008b
:1028e4000080fa00000006000000fa004382a900fc
:1028f4004362a9004342a9004322a90042e2a9007d
:102904004302a80042c2a90042a2a80011128000fa
:1029140030fe2f00008060000030a00010128800fc
:10292400101280003000b300101288000000eb0089
:102934002012880041a2a80040c2a90041e2a800d8
:102944000080fa00000006000000fa001061a800f0
:102954008500a9009500a9000080fa000000060087
:102964000000fa0013c0b3000041eb000109290084
:10297400b0c0b30083fe07000080fa000000060028
:102984001006fa0040602000000147000000220009
:10299400010020000089be004060200000004700c4
:1029a4001000be0069010700826020000201470098
:1029b4000089be00806020000000470010407800bd
:1029c400e04f500001003a000f0107008060200032
:1029d400000047001001be00f00f2000010020009d
:1029e4000202780003017800800178000100780079
:1029f400030262000000610001002000c000dd004d
:102a0400000020000001be006120b8000001710038
:102a140081817100f00f200001002000800f51001f
:102a2400818f59001c0032008060200000004700a4
:102a3400104078000000fb00cf80de0002a02500db
:102a44000289b90002017800232620000382b9001c
:102a5400840178000301410003a025000300b800ad
:102a640001014100820078008260200002014700d9
:102a74000089be0080602000000047001000900024
:102a84007008880080602000000047001000780073
:102a94006008880011e1a8000e80e800e10007004a
:102aa4002e4090000000fb00cf80de0002012000d9
:102ab40003002000820f5000838f5800c5003e00a1
:102ac40000600100cd003700c20037000e0037005f
:102ad40027003700bf003700be003700bd003700b5
:102ae4007700370094003700660037006e00370027
:102af400b8003700b7003700b6003700b50037001c
:102b0400b400370056003700406020000000470042
:102b1400c400070040602000000047000000e800f7
:102b2400c000070040602000000047000080e8006b
:102b3400bc00070040602000800047000040eb001c
:102b4400b040980040602000000047001000be0024
:102b5400630247000001be0004007800080107007a
:102b64006300470001602000c3000700a200370093
:102b74004060200000004700aa00070040602000d9
:102b8400000047000000e800a600070040602000a5
:102b9400000047000080e800a20007004060200019
:102ba400800047000040eb00b04098000000eb00bc
:102bb400000f7800050037001e007800e30047008e
:102bc40000804000970007001e0fe800f05f20001f
:102bd4009e007800808f5000f7ff34004060200092
:102be400000047001000be00ca000700406020003b
:102bf400000047001000be00630247000001be0051
:102c0400040078000c010700501680004e00de001e
:102c14006140600000c0ea00614060000080fb0089
:102c2400610060004e00dd0052168000f1ff2b00b1
:102c340081006100008070005016880010c0b3004d
:102c44003047980063004700e3cfb3000041eb0036
:102c54008000780010c0b300cafd0700660037008a
:102c6400630047008301070063004700e3cfb3001c
:102c74000041eb008000780060c0b300c1fd070094
:102c84005d003700630047005101070063004700ff
:102c9400e3cfb3000041eb008000780060c0b300d4
:102ca400b8fd070054003700e3cfb3000041eb0048
:102cb400c109290050c0b300b2fd07004e0037001f
:102cc4000000eb00000f7800170037001e007800aa
:102cd400e3004700008040001e0fe8005100070099
:102ce4001e007800e3004700008040001e0fe8004b
:102cf4004c0007001e007800e300470000804000fd
:102d04001e0fe8004700070010c0b30030479800ca
:102d140063004700e3cfb3000041eb00800078007c
:102d240010c0b30097fd07001e007800f70f500095
:102d3400e6ff3400300037000000eb00000f78009d
:102d4400406020000001470000002000810f2000a7
:102d54000089be001b003700630047001e004000ce
:102d640010407800e04f50000c003a001e00e800cc
:102d74000000470030409000c160200081004700ff
:102d8400804878001e80e800000047003040900032
:102d9400c160200081004700904098001e00780028
:102da400630f400040602000000047001000be0098
:102db40062004000e08048004260200002014700b9
:102dc4000089be001e007800f70f5000e2ff3400b7
:102dd4000b0037000040eb003047980063004700c9
:102de400e3cfb3000041eb008000780010c0b300d3
:102df40064fd07000000000027ff3700000000000a
:102e04000080fa00000006000000fa00cb82a9004e
:102e1400cba2a900cbc2a9003e0107000080fa00a2
:102e2400000006000200fa00000f780001003700dd
:102e340000000000210480000010200000806000d9
:102e4400e00f5000040032009e0078000040eb00c8
:102e540080487800060037001e007800ddfc07007b
:102e6400e14f5000f2ff3a0011e1a9000000000018
:102e74000080fa00000006000600fa00100798001f
:102e8400210798000000eb00000f78001c003700b9
:102e9400ae00900000052000808f50000e0034002a
:102ea4001e0078009e00900000804000e3cfb30035
:102eb4000041eb008000780000c5b30031fd07003d
:102ec4002e0090000005b1002007980000052000a6
:102ed4001e0f40000a0037001e0078009e0090007c
:102ee400808040002e00900000407800e3cfb300c3
:102ef4000041eb0023fd07000000eb0020079800d1
:102f04002e009000e00f5000e1ff3c000080fa002a
:102f1400000006000800fa00200798003107980016
:102f24006000b800008fbe002e009000be0090002c
:102f3400008fbe009e0078001e0090002204240032
:102f44007d0107000080fa00000006000800fa0076
:102f540020079800310798006000b800008fbe0079
:102f64002e009000be009000008fbe009e007800ee
:102f74001e009000690107000080fa0000000600ae
:102f84001000fa0050079800620798007307980031
:102f94006000b80010079800210798006e009000a8
:102fa400fe00900010079800210798000000eb0035
:102fb400000f78001a0037001e009000ae00900049
:102fc400e2ff070030079800410798006e40900028
:102fd400de009000804878005e0090008000e800e9
:102fe4007e409000804878005e0090008080e80079
:102ff4000e489000804878005e0090006300400016
:10300400500798001e009000ae009000620040003f
:10301400e080480010079800210798001e0fe80080
:10302400f01f20009e007800808f5000e2ff3400e3
:103034000080fa00000006001a00fa00200f980031
:10304400320f9800430f98006000b80020079800e2
:10305400310798003e089000ce08900020079800a1
:10306400310798000040eb00304f98000000eb005f
:10307400000f78000000eb00100798004e003700a6
:103084001e009000ae0890000080400010407800c0
:10309400004f98001e0090000000e800ae08900069
:1030a4000080400010407800104f98001e009000ef
:1030b4000080e800ae0890000080400010407800d6
:1030c400204f98001e0090006300400010079800f5
:1030d400ce0190005e019000ae0090003e00900092
:1030e4000a0107002e019000be019000f0012000ab
:1030f40001002000020278000301780080017800ba
:103104000100780003026200000061000100200059
:10311400c000dd00000020000001be006120b800f6
:1031240000017100818171008001200001002000f4
:10313400800f5100818f590008003a002e00900042
:10314400be00900060079800710798004e00900040
:10315400de009000000f9800110f98001e00780008
:10316400e00f50000d0032001e00e80080007800df
:10317400f003200000806000e00f500007003a00d8
:103184008e0990001e099000ee0090007e009000d1
:10319400de00070010002400d10007002e0090007c
:1031a400be00900062004000e080480020079800c4
:1031b400310798001e0fe800f01f20009e007800e1
:1031c400808f5000aeff34000080fa00000006003b
:1031d4000a00fa004007980000002000f10f2000c8
:1031e400008fbe001e00be0058ff07002007980095
:1031f400310798004e409000ce009000804878003f
:103204004e0090008000e8005e4090008048780006
:103214004e0090008080e8006e4090008048780066
:1032240020002000f10f2000008fbe001e00be0011
:1032340046ff070020079800310798004e009000d1
:10324400e30040004e409000804878004e0090001b
:10325400e40040005e409000804878004e009000fa
:10326400e50040006e409000804878000080fa003d
:10327400000006000a00fa00400798006000b80049
:10328400008fbe001e00be0030ff0700200798001c
:10329400310798004e409000ce009000804878009e
:1032a4004e0090008000e8005e4090008048780066
:1032b4004e0090008080e8006e40900080487800c6
:1032c4002000200001002000008fbe001e00be0070
:1032d4001eff070020079800310798004e00900059
:1032e400e30040004e409000804878004e0090007b
:1032f400e40040005e409000804878004e0090005a
:10330400e50040006e409000804878000080fa009c
:10331400000006000000fa00840007000080fa00a4
:10332400000006000200fa0036000700450007000e
:103334004d0007000000eb00000f78000000eb00d8
:10334400000f780010003700cb82a800cba2a800a1
:10335400cbc2a800800c20008d000700cb82a900fe
:10336400cba2a900cbc2a900800c200088000700d2
:10337400cb82a800cba2a800cbc2a800800c20005e
:10338400830007001e0fe8001e007800e20f5000c3
:10339400edff34006afb07006bfd0700cb82a80039
:1033a400cba2a800cbc2a800401f200078000700d1
:1033b400cb82a900cba2a900cbc2a900800c20001b
:1033c40073000700cb82a800cba2a800cbc2a80040
:1033d400401f20006e0007000000000076fb07007d
:1033e400f64f5000fdff3a00cb82a900cba2a90002
:1033f400cbc2a9005afd070061fd070082fe070049
:10340400ffff37000000fa00313a800000e02f008f
:10341400008060006000b300303a8800213a8000e8
:1034240000fe2f0000806000203a8800213a8000ce
:10343400f0f32f0000806000203a88000080fa003a
:10344400000006000000fa0000000000113a8000ad
:103454000002200000806000e00f5000fbff3200fb
:103464000080fa00000006000000fa000080eb0073
:10347400601988000080eb00601b88000000eb00ee
:1034840050168800b0ff2000301688000000eb00c2
:1034940080168800f0ff2b00601688000000eb0007
:1034a400b01688000080eb00901688000000eb0046
:1034b40040178800f01f2000201788000000eb0050
:1034c400e01688000000eb00c01688000080fa00b7
:1034d40000000600900188008100780000000600ca
:1034e400003b880050052000303b8800a00a2000e3
:1034f400303b880061e7a8000000000000000000e5
:1035040061e7af00feff370000000600900188006d
:103514008308bb008288bb0000000600900188007d
:103524001100ba009180ba000000060002200400d5
:1035340000000000000006003200f800023b880092
:10354400900188008108bb0050052000303b8800b2
:10355400a00a2000303b880061e7a80000000000ba
:103564000000000061e7af00feff37003200f90001
:10357400000006006801b8002200b100000000004d
:10358400000000000201e900fcff3a000000060010
:10359400e2f3210000000000000000000201e90045
:1035a400fcff3a000000e900f9ff3a0000000600c1
:020000040000fa
:1035b4000008000096000000000000000000000069
:020000040000fa
:0835c4000040da000000fe00e7
:020000040000fa
:0200000401f009
:04000c00fbff0000f6
:020000040000fa
:0200000401f009
:04001000bcff000031
:020000040000fa
:0200000401f009
:040014007fff00006a
:00000001FF
